:100000000C941C010C9444010C9444010C94440184
:100010000C9444010C9444010C9444010C9444014C
:100020000C9444010C9448050C9454070C94C20899
:100030000C9444010C9444010C9444010C9444012C
:100040000C9444010C9444010C9444010C9444011C
:100050000C9444010C9444010C9444010C94D0037E
:100060000C9444010C9444010C9444010C944401FC
:100070000C9444010C9444010C9444010C944401EC
:100080000C9444010C9444010C9444010C944401DC
:100090000C941A040C9444010C9444010C944401F3
:1000A0000C9444010C9444010C944401AC01AF0144
:1000B0009E01A201A601D001D001D001B301B70178
:1000C000BB01C101C501D001CB0100000002000944
:1000D0000F0000030401000C0000000000000000FD
:1000E00000000000000000000000000000250028C3
:1000F000002B002E00310000000000240027002A01
:10010000002D00300004040404040304050202026C
:1001100002040302020202060606060606040402A0
:1001200002020404040802011040804010204080B4
:10013000408008020401804020100201108010203D
:1001400040402056434E4C3430313020696E697443
:1001500069616C697A65642E0A0A004572726F7271
:100160002C20756E61626C6520746F2066696E6408
:10017000206F72206964656E746966792056434EFB
:100180004C343031302E005374617274696E6720C4
:1001900056434E4C343031302057616B654F6E49B9
:1001A0006E746572727570742070726F6772616DB3
:1001B00000080B0002020201000904000001020213
:1001C0000000052400100105240101010424020699
:1001D0000524060001070581031000400904010001
:1001E000020A000000070502024000000705830222
:1001F0004000000403090441726475696E6F204C6D
:100200004C430041726475696E6F204D6963726F73
:10021000001201000200000040412337800001016C
:1002200002030112010002EF020140412337800066
:10023000010102030100060D11241FBECFEFDAE019
:10024000DEBFCDBF11E0A0E0B1E0ECEDFAE102C00D
:1002500005900D92A038B107D9F722E0A0E8B1E0EF
:1002600001C01D92A33BB207E1F711E0CCE1D1E060
:1002700004C02197FE010E94610DCB31D107C9F75F
:100280000E94FF0A0C946C0D0C940000CF93DF9336
:100290001F92CDB7DEB76983DC01ED91FC9102803E
:1002A000F381E02D41E050E0BE016F5F7F4F099583
:1002B0000F90DF91CF91089583E08093E9008091C2
:1002C000F200882319F08AE38093E8000895FC0186
:1002D0008485958597FD0BC09FB7F89482E0809345
:1002E000E9008091F2009FBF90E0019608959FB7CA
:1002F000F89482E08093E9008091F2009FBF90E043
:100300000895362F90E0FC01E653FF4F4491FC0125
:10031000EC5DFE4F2491FC01EB5FFE4F849188233E
:1003200009F451C04423E1F150E0FA013197EF3074
:10033000F105B0F5EA5AFF4F0C94610D90918000E1
:100340009F7707C0909180009F7D03C090918000AF
:10035000977F9093800024C094B59F7702C094B596
:100360009F7D94BD1DC0909190009F7707C0909194
:1003700090009F7D03C090919000977F9093900094
:100380000FC09091C0009F7703C09091C0009F7DE7
:100390009093C00005C09091C200977F9093C200D7
:1003A000E82FF0E0EE0FFF1FE751FF4FA591B4914A
:1003B0008FB7F894EC91311103C020952E2301C022
:1003C0002E2B2C938FBF08953FB7F8948091C801CE
:1003D0009091C901A091CA01B091CB0126B5A89B0B
:1003E00005C02F3F19F00196A11DB11D3FBFBA2FC7
:1003F000A92F982F8827820F911DA11DB11DBC0127
:10040000CD0142E0660F771F881F991F4A95D1F7EB
:1004100008958F929F92AF92BF92CF92DF92EF9208
:10042000FF926B017C010E94E4014B015C01C1144D
:10043000D104E104F104F1F00E94E401DC01CB01FC
:1004400088199909AA09BB09883E9340A105B105FD
:1004500070F321E0C21AD108E108F10888EE880E95
:1004600083E0981EA11CB11CC114D104E104F10465
:1004700019F7DDCFFF90EF90DF90CF90BF90AF9056
:100480009F908F9008958F929F92AF92BF92CF923C
:10049000DF92EF92FF920F931F93CF93DF935C0154
:1004A0006B018A0180910B01882309F45EC0809161
:1004B000D301882309F459C08091D00180FF05C081
:1004C0008091E00082608093E000E8018AEFF82EDE
:1004D00093E0E92E2FE3822E3AE3932E209709F43E
:1004E0003DC08FB7F894E092E9009091E80095FF45
:1004F00006C09091F200282D291B922F01C090E098
:100500008FBF91110AC0FA94FF2079F161E070E089
:1005100080E090E00E940902E1CF292F30E0C2176D
:10052000D3070CF49C2F8FB7F894E092E900209148
:10053000E80025FF11C0292F30E0C21BD30BF601C4
:10054000915020F041914093F100FACFC20ED31E9A
:100550009091E80095FF13C08FBFC0CF5D9A84E6ED
:100560008093D1011016110644F081E090E0F5016E
:100570009383828380E090E005C0C80103C090921D
:10058000E800EACFDF91CF911F910F91FF90EF909C
:10059000DF90CF90BF90AF909F908F90089585EDA2
:1005A0008093BC008091BC0084FDFCCF10921C02A3
:1005B00008954091A201262F30E0240F311D2132F1
:1005C0003105DCF420911C022430C9F4FC0180E0E8
:1005D00090E0861758F43091A2012191DC01A058D7
:1005E000BE4FA30FB11D2C930196F3CF8091A201B2
:1005F000680F6093A20180E0089581E0089582E091
:1006000008950895E091D5018091D401E81730F460
:10061000F0E0EA52FE4F808190E008958FEF9FEF67
:1006200008959091D5018091D401981750F4E92F45
:10063000F0E0EA52FE4F208130E09F5F9093D501B9
:1006400002C02FEF3FEFC90108958091D40190E0DF
:100650002091D501821B91090895CF92DF92EF92EC
:10066000FF920F931F93CF93DF937C01262F972F39
:100670008A0180911D02882391F0C62FD72F6E0129
:10068000C40ED51ECC15DD0571F06991D701ED9131
:10069000FC910190F081E02DC7010995F3CF642F03
:1006A000822F0E94D902C801DF91CF911F910F9133
:1006B000FF90EF90DF90CF900895CF93DF931F923C
:1006C000CDB7DEB7698320911D022223D1F020919E
:1006D0003F02203240F021E030E0FC0133832283EE
:1006E00080E090E015C080911E02E82FF0E0E15E0E
:1006F000FD4F998190838F5F80931E0280933F020C
:1007000005C061E0CE0101960E94D90281E090E02F
:100710000F90DF91CF9108950F931F93CF93DF93A5
:100720001F92CDB7DEB78C01FC018485958597FFBC
:100730000EC0CE0101960E941607019719F4298177
:1007400030E002C02FEF3FEFF80135872487F80132
:10075000848595850F90DF91CF911F910F9108951A
:10076000CF93DF931F92CDB7DEB7FC0184859585CB
:1007700097FD05C02FEF3FEF358724870BC0CE01D3
:1007800001960E941607019719F4898190E002C032
:100790008FEF9FEF0F90DF91CF9108950E94670D2B
:1007A0001F920F920FB60F9211242F933F938F93A6
:1007B0009F93AF93BF938091CC019091CD01A09175
:1007C000CE01B091CF013091C70123E0230F2D3727
:1007D00020F40196A11DB11D05C026E8230F029645
:1007E000A11DB11D2093C7018093CC019093CD0131
:1007F000A093CE01B093CF018091C8019091C9011F
:10080000A091CA01B091CB010196A11DB11D8093A9
:10081000C8019093C901A093CA01B093CB01BF91C5
:10082000AF919F918F913F912F910F900FBE0F909D
:100830001F9018951F920F920FB60F9211242F93AD
:100840003F934F935F936F937F938F939F93AF9358
:10085000BF93EF93FF938091B900887F803609F4AE
:100860009CC068F5883209F45BC090F4803109F4CB
:1008700054C038F4882309F4F6C0883009F44DC018
:10088000F6C0883109F44CC0803209F45DC0EFC075
:10089000803409F468C048F4803309F455C08833C3
:1008A00009F0E5C080931A02D8C0803509F44FC022
:1008B000883509F45DC0883409F0D9C0D6C08839BC
:1008C00009F4C7C0A8F4883709F467C038F488363B
:1008D00009F463C0803709F460C0C9C0883809F4DE
:1008E000B8C0803909F45FC0803809F0C0C05BC06F
:1008F000803B09F486C038F4803A09F466C0883A2F
:1009000009F47FC0B4C0803C09F4A7C0883C09F456
:10091000A4C0883B09F48AC0AAC08091F70110C026
:100920009091190280911802981770F5E0911902C0
:1009300081E08E0F80931902F0E0E850FE4F808135
:100940008093BB0085EC86C080931A028EC0E09134
:10095000190281E08E0F809319028091BB00F0E0B4
:10096000E850FE4F808390911902809118026EC06A
:10097000E091190281E08E0F809319028091BB00F3
:10098000F0E0E850FE4F808380911B0281116DC022
:1009900081E08093F60184EA61C083E080931C02C9
:1009A0001092C601CFCF8091C601803208F051C0AD
:1009B000E091C60181E08E0F8093C6018091BB005B
:1009C000F0E0EA55FE4F8083BDCF85EC8093BC00FC
:1009D00010921C028091C601803230F4E091C60171
:1009E000F0E0EA55FE4F10826091C60170E0E091A0
:1009F000A401F091A50186EA91E009951092C60143
:100A000036C084E080931C021092A3011092A201D0
:100A1000E091A001F091A10109958091A2018111BD
:100A200005C081E08093A20110928001E091A301B2
:100A300081E08E0F8093A301F0E0E058FE4F8081AB
:100A40008093BB009091A3018091A201981708F4B4
:100A500079CF85E88093BC000AC085EC8093BC0008
:100A600010921C0204C010921A020E94CF02FF9141
:100A7000EF91BF91AF919F918F917F916F915F9116
:100A80004F913F912F910F900FBE0F901F9018958F
:100A90001F920F920FB60F9211242F933F934F93F3
:100AA0005F936F937F938F939F93AF93BF93EF93D6
:100AB000FF938BE791E00E940D06FF91EF91BF91AC
:100AC000AF919F918F917F916F915F914F913F91E6
:100AD0002F910F900FBE0F901F901895382F2091D7
:100AE0003F029091AB02213208F049C080911C0274
:100AF0008111FCCF42E040931C0230931B023FEF78
:100B000030931A021092190220931802AFE1B2E05A
:100B100048EF51E0FA013E2F341B321718F43D9193
:100B20003193F9CF1092F7012091F701990F922B91
:100B30009093F7019091F601913061F41092F601D3
:100B40009091F7019093BB009091BC0093FDF8CF7A
:100B500095EC01C095EE9093BC0090911C029230F0
:100B6000E1F390911A029F3F79F080911A0280324E
:100B700041F080911A02803331F084E005C081E0B9
:100B800003C082E001C083E010921E0210923F0277
:100B900010921D02089590911C029111FCCF91E0DA
:100BA00090931C0290931B022FEF20931A02109235
:100BB0001902280F209318029093F7019091F701E2
:100BC00096629093F7019091F601913061F4109242
:100BD000F6019091F7019093BB009091BC0093FDBA
:100BE000F8CF95EC01C095EE9093BC0090911C025B
:100BF0009130E1F390911902981710F48091190245
:100C0000A8EFB1E026ED31E0F9019E2F921B981775
:100C100018F49D919193F9CF0895BC01009791F03C
:100C2000FC0101900020E9F73197AF01481B590BF7
:100C3000E0914002F09141020280F381E02D80E4D6
:100C400092E0099480E090E008958F929F92AF9295
:100C5000BF920F931F93CF93DF93CDB7DEB7A197CA
:100C60000FB6F894DEBF0FBECDBF19A2423008F414
:100C70004AE08E010F5D1F4F842E912CA12CB12CC8
:100C8000A50194010E943F0DE62FB901CA01015050
:100C90001109EA3014F4E05D01C0E95CD801EC937D
:100CA000232B242B252B61F7C8010E940D06A1964A
:100CB0000FB6F894DEBF0FBECDBFDF91CF911F916D
:100CC0000F91BF90AF909F908F900895CF93C62FB4
:100CD00091E090931D0293E19093AB0210921E025B
:100CE00010923F02682F80E992E00E945D036C2F12
:100CF00080E992E00E945D0381E00E946E0580938E
:100D00009C02CF91089591E090931D0293E19093FE
:100D1000AB0210921E0210923F02682F80E992E00F
:100D20000E945D0381E00E946E0580939C028BED22
:100D300091E00197F1F781E00E94CB051092D50177
:100D40008093D401811101C0FFCF80E992E00E941D
:100D5000110308951F93CF93DF9380E80E948306C9
:100D6000182F81E080931D0283E18093AB021092E3
:100D70001E0210923F0267E880E992E00E945D0344
:100D800081E00E946E0580939C028BED91E00197BB
:100D9000F1F782E00E94CB051092D5018093D40137
:100DA000811101C0FFCF80E992E00E941103C82F9A
:100DB00080E992E00E94110320E030E03C2FE9013D
:100DC000C82BD92B80919E02811105C0612F6860CC
:100DD00080E80E946606CE01DF91CF911F910895B1
:100DE0000F931F93CF93DF938C01C0E0D0E0F80105
:100DF000EC0FFD1F6491662371F0E0914002F091C9
:100E000041020190F081E02D80E492E00995892B68
:100E100011F02196ECCF8BE591E00E940D068C0F2E
:100E20009D1FDF91CF911F910F910895FC0180913B
:100E3000D301811103C08FEF9FEF08959FB7F894FE
:100E400082E08093E9002091F20030E01216130650
:100E500014F421E030E02115310559F0289A84E698
:100E60008093D2018091F10080838091F2008823E9
:100E700019F09FBFC90108958BE68093E800F9CF70
:100E80008091A30281110DC082E080939F0284E0D3
:100E90008093A0021092A2021092A10281E080939E
:100EA000A3028FE992E008951F920F920FB60F925E
:100EB00011248F939F938091E1009091E100937FA3
:100EC0009093E10083FF0FC01092E90091E09093AE
:100ED000EB001092EC0092E39093ED001092D3019E
:100EE00098E09093F00082FF20C093E09093E90097
:100EF0009091F200992319F09AE39093E800909171
:100F0000D101992339F09091D10191509093D10161
:100F1000992389F19091D201992339F09091D201CE
:100F200091509093D201992341F184FF10C0809198
:100F3000E2008E7E81608093E2008091E1008F7EEE
:100F40008093E1008091D0018E7E806111C080FF8E
:100F500016C08091E2008E7E80618093E2008091D5
:100F6000E1008E7E8093E1008091D0018E7E8160D1
:100F70008093D00104C05D98CDCF2898D6CF9F91A3
:100F80008F910F900FBE0F901F9018954091B10256
:100F90005091B2022091AF023091B0024217530734
:100FA000B4F49091E8009570E1F39091E80092FD1F
:100FB00019C08093F1008091B1029091B202019624
:100FC0008F739927892B19F48EEF8093E800809115
:100FD000B1029091B20201969093B2028093B10255
:100FE00081E0089580E00895CF92DF92EF92FF9222
:100FF0000F931F93CF93DF931F92CDB7DEB7182FB8
:10100000062FE42E862F880F8E5F99830E94C607D5
:1010100083E00E94C607F12EC12E9981D92E8C2D16
:101020008F19801798F4F601E7FE02C0849101C081
:1010300080810E94C607182F80E00E94C607812386
:10104000FFEFCF1ADF0A8111EACF01C081E00F90D4
:10105000DF91CF911F910F91FF90EF90DF90CF9094
:101060000895DF92EF92FF920F931F93CF93DF9338
:10107000D82E8A017B01E40EF51EEB01CE15DF05AB
:1010800071F0D7FE03C0FE01849101C088810E94E7
:10109000C60721968111F2CF8FEF9FEF01C0C801E3
:1010A000DF91CF911F910F91FF90EF90DF90089506
:1010B000615030F02091F100FC0120830196F8CFBF
:1010C000289A84E68093D2010895CF92DF92EF921E
:1010D000FF920F931F93CF93DF936C017A018B01E3
:1010E000C0E0D0E0CE15DF0589F0D8016D918D010B
:1010F000D601ED91FC910190F081E02DC60109959A
:10110000892B11F47E0102C02196ECCFC701DF913B
:10111000CF911F910F91FF90EF90DF90CF900895A6
:101120000F931F93CF93DF931F92CDB7DEB782E06B
:10113000898342E450E061EB71E080E80E9431086D
:101140000E944007DC0112960D911C911397011526
:10115000110569F0D801ED91FC910280F381E02D39
:10116000BE016F5F7F4FC801099597FF07C0898156
:101170000F90DF91CF911F910F910895F801008595
:101180001185E5CF1F920F920FB60F921124CF92C7
:10119000DF92EF92FF920F931F932F933F934F9302
:1011A0005F936F937F938F939F93AF93BF93EF93CF
:1011B000FF93CF93DF93CDB7DEB76C97DEBFCDBF84
:1011C0001092E9008091E80083FFFAC168E0CE0147
:1011D00045960E94580882EF8093E8008D8987FF2A
:1011E00005C09091E80090FFFCCF03C09EEF909364
:1011F000E800982F907609F0C6C09E892F89188D37
:1012000091110CC0803829F48091AD028093F100D7
:1012100002C01092F1001092F10047C1422F50E03D
:10122000512B913051F4811140C14130510509F0E9
:101230003CC18091AD028D7F0BC0933061F4811170
:1012400034C14130510509F030C18091AD02826056
:101250008093AD022AC1953041F48091E80080FF6F
:10126000FCCF20682093E30020C1963009F05FC0D6
:10127000EB8CFC8C1092E9001092B2021092B10239
:10128000123091F51092B0021092AF020E949008B5
:1012900099E0BE016F5F7F4FDB01E92F1D92EA9558
:1012A000E9F799831A8391E09E8390EA98879AEFF1
:1012B00099872091B1023091B202275F3F4F3C8362
:1012C0002B838D831092E9001092B2021092B1022A
:1012D000F092B002E092AF0249E050E080E00E945C
:1012E00031080E949008E1C0F092B002E092AF0293
:1012F0000E944007DC011296ED90FC901397E114D8
:10130000F10409F4C0C0D701ED91FC910480F5818E
:10131000E02DBE016B5E7F4FC7010995009719F064
:101320000CF0C3C0C6C0F701E084F184E8CF973069
:1013300009F4BFC0983021F481E08093F100B5C07A
:10134000993009F0B2C0837009F0B3C0EDE2F1E06A
:1013500081E021E036E39081992361F08093E900F8
:101360002093EB0091919093EC003093ED008F5F10
:10137000873089F78EE78093EA001092EA008F8920
:101380008093D30192C08B8D9C8D1092E9001092B6
:10139000B2021092B1029093B0028093AF02898D95
:1013A000811156C08E899D89913A59F4813209F094
:1013B00080C047E050E064E071E080E00E943108C6
:1013C00074C0913209F075C0833289F4888D90E041
:1013D000982F88272F89822BA0E0B0E0809300010E
:1013E00090930101A0930201B09303015EC080328B
:1013F00069F48091E80082FFFCCF67E084E091E02F
:101400000E9458088BEF8093E80006C0823209F0F2
:101410004CC08F8980930B018091AC02882319F016
:10142000EEEFFAE002C0E0E0F8E080910401909174
:101430000501A0910601B0910701803B9440A105F0
:10144000B10509F088C080910B0180FFA0C083C066
:101450000E944007DC0112960D911C911397011513
:10146000110539F1D801ED91FC910190F081E02D49
:10147000BE016B5E7F4FC8010995811116C0F8014E
:1014800000851185ECCF1130C1F0133091F48F89B4
:10149000882309F455C08230E9F440E86DE083E028
:1014A00092E00E94F407882321F08EEF8093E800F9
:1014B00087C081E28093EB0083C08B8D9C8D089761
:1014C00011F41093AE028091AE02811136C061E139
:1014D00072E038C0813029F440E86BE087EF91E09A
:1014E000E0CF833031F70E944007DC011296ED9087
:1014F000FC9013978E010F5F1F4F6801E114F104F8
:1015000079F0D701ED91FC910680F781E02DB801CB
:10151000C7010995080F111DF701E084F184EECF92
:10152000D8011C92F60101900020E9F73197BF0124
:101530006C197D0940E0C601B4CF63E272E002C0DD
:1015400063EF71E06115710509F4B3CFFB014491BC
:1015500050E080E833CF0FB6F894A89580916000F2
:10156000886180936000109260000FBEA895EE3FE6
:101570002AE0F20739F08091FE0A9091FF0A9183E8
:10158000808393CF1092FF0A1092FE0A8ECFEE3F17
:101590008AE0F80731F0808191819093FF0A80936F
:1015A000FE0A87E797E7918380839BE088E10FB687
:1015B000F894A895809360000FBE9093600075CF5B
:1015C0006C960FB6F894DEBF0FBECDBFDF91CF9102
:1015D000FF91EF91BF91AF919F918F917F916F910B
:1015E0005F914F913F912F911F910F91FF90EF903D
:1015F000DF90CF900F900FBE0F901F9018957894AA
:1016000084B5826084BD84B5816084BD85B5826007
:1016100085BD85B5816085BD80916E0081608093B8
:101620006E00109281008091810082608093810021
:101630008091810081608093810080918000816031
:1016400080938000809191008260809391008091CE
:1016500091008160809391008091900081608093DF
:1016600090008091C10084608093C1008091C1008E
:1016700082608093C1008091C10081608093C1002D
:101680008091C30081608093C3008091C00082601C
:101690008093C0008091C20081608093C2008091DD
:1016A0007A00846080937A0080917A0082608093CF
:1016B0007A0080917A00816080937A0080917A002C
:1016C000806880937A001092D3011092AD0210923C
:1016D000D0018091D70081608093D70080EA809309
:1016E000D80089B5806189BD89B5826089BD09B49A
:1016F00000FEFDCF61E070E080E090E00E94090212
:101700008091D8008F7C80618093D8008091E00028
:10171000807F8093E0008091E1008E7E8093E100E5
:101720008DE08093E200559A209A5D982898EEEF1C
:10173000FFE7859194918B3F9C4D19F481E0809354
:10174000AC02E1E3F1E02491E2E1F1E0849188234D
:1017500099F090E0880F991FFC01E950FF4FA59187
:10176000B491FC01E751FF4F859194918FB7F894A4
:10177000EC91E22BEC938FBF61E08DE00E94810140
:10178000EDE2F1E02491EEE0F1E084918823C1F0F4
:1017900090E0880F991FFC01E950FF4FC591D4914B
:1017A000FC01E751FF4FA591B4919FB7F8943881A0
:1017B000822F809583238883EC91E22BEC939FBF4B
:1017C0008FEF9FEF90934D0280934C0260ED77E096
:1017D00080E090E00E94090287E891E00E94F00614
:1017E00011E0D8E4C5E41092D5011092D401109212
:1017F0001E0210923F0210921C0210931B021092C4
:10180000F60161E082E00E94810161E083E00E94D4
:1018100081018091B9008E7F8093B9008091B900D9
:101820008D7F8093B900D093B800C093BC0081E84D
:101830000E948306813259F08BE591E00E94F00608
:1018400068E873E180E090E00E940902CCCF60E09C
:1018500082E80E94660662E083E80E94660684E8E9
:101860000E9483068878682F656184E80E94660676
:101870008FE80E948306682F677E8FE80E946606C5
:1018800060E089E80E94660680E80E948306682F6F
:10189000686180E80E94660664E183E80E9466064B
:1018A0008FE80E948306682F677E8FE80E94660695
:1018B0000E94AA06EC0183E391E00E940D06BE019E
:1018C00080E090E04AE00E94250688E491E00E94D2
:1018D0000D0629E02C9FC0012D9F900D11242AE0B8
:1018E000E22EF12CB7010E942B0D8B0180E090E0DD
:1018F0004AE00E94250681E591E00E940D062BE05A
:101900002C9FC0012D9F900D1124B7010E942B0D1B
:10191000EB0180E090E04AE00E9425068BE591E033
:101920000E940D06612F8AE80E946606602F8BE8F0
:101930000E9466066D2F8CE80E9466066C2F8DE86B
:101940000E94660662E489E80E94660680E80E94BA
:10195000830681E080939E0283E491E00E94F0067A
:1019600080916B00806280936B00D89A80916800B0
:1019700081608093680010E8C0E0D0E060E08DE016
:101980000E94810110927A0083B78E6083BFF89421
:1019900083B7816083BF7894889510937A0061E063
:1019A0008DE00E9481018EE80E948306882341F128
:1019B0002FB7F8946091CC017091CD018091CE0148
:1019C0009091CF012FBF4AE00E94250689E591E062
:1019D0000E940D060E94AA06BC0180E090E04AE049
:1019E0000E9425068EE591E00E940D066FEF8EE8BD
:1019F0000E94660668EC70E080E090E00E940902B8
:101A0000209709F4BBCF0E940000B8CFE0E4F2E0D9
:101A10001382128288EE93E0A0E0B0E08483958385
:101A2000A683B78320E131E0318320832FEF3FEF9E
:101A300035872487E0E9F2E013821282848395835C
:101A4000A683B78380E291E091838083ECE9F2E0A2
:101A5000118212820895AA1BBB1B51E107C0AA1F65
:101A6000BB1FA617B70710F0A61BB70B881F991F3F
:101A70005A95A9F780959095BC01CD010895A1E2F2
:101A80001A2EAA1BBB1BFD010DC0AA1FBB1FEE1FF8
:101A9000FF1FA217B307E407F50720F0A21BB30B43
:101AA000E40BF50B661F771F881F991F1A9469F7BF
:101AB00060957095809590959B01AC01BD01CF011B
:101AC0000895EE0FFF1F0590F491E02D099481E039
:0C1AD00090E0F8940C946C0DF894FFCF9B
:101ADC00FFFFFFFF00E1000000000000000000001D
:101AEC00460143026701B0038C035C010000000057
:101AFC005D032D03250311030203010300C1808143
:101B0C0000000050726F78696D6974792073656E8E
:101B1C00736F7220697320002C206C6F77203D202E
:101B2C00002C2068696768203D20000D0A003A20CF
:101B3C0053656E736F72204D6F76656D656E742094
:101B4C006465746563746564210A0057616B650094
:00000001FF
