:100000000C942E010C9456010C9456010C9456013C
:100010000C9456010C9456010C9456010C94560104
:100020000C9456010C9456010C947B040C94ED0432
:100030000C9456010C9456010C9456010C945601E4
:100040000C9456010C9456010C9456010C945601D4
:100050000C9456010C9456010C9456010C942A07EA
:100060000C9456010C9456010C9456010C945601B4
:100070000C9456010C9456010C9456010C945601A4
:100080000C9456010C9456010C9456010C94560194
:100090000C9474070C9456010C9456010C94560160
:1000A0000C9456010C9456010C945601000A030A54
:1000B000F209F609FA09240A240A240A070A0B0A93
:1000C0000F0A150A190A240A1F0A56434E4C3430E7
:1000D000313020696E697469616C697A65642E0AD1
:1000E0000A004572726F722C20756E61626C652019
:1000F000746F2066696E64206F72206964656E7427
:100100006966792056434E4C343031302E0053749A
:10011000617274696E672056434E4C343031302022
:10012000646973706C6179206D6561737572656D5A
:10013000656E74732070726F6772616D002A002C97
:100140002050726F78696D697479203D20002A0013
:100150002C20416D6269656E74204C69676874205B
:100160003D200054696D65203D2000080B0002020F
:100170000201000904000001020200000524001031
:1001800001052401010104240206052406000107DB
:1001900005810310004009040100020A0000000765
:1001A0000502024000000705830240000004030925
:1001B0000441726475696E6F204C4C430041726457
:1001C00075696E6F204D6963726F00120100020045
:1001D00000004041233780000101020301120100A9
:1001E00002EF0201404123378000010102030100B8
:1001F000000000250028002B002E0031000404041C
:1002000004040304050202020204030202020206BD
:10021000060606060604040202020404040802019B
:10022000104080401020408040800802040180403F
:100230002010020110801020404020000000020029
:10024000090F0000030401000C0000000000000082
:1002500000000000000000000000D30C11241FBEAD
:10026000CFEFDAE0DEBFCDBF11E0A0E0B1E0E2E722
:10027000FAE102C005900D92A633B107D9F722E04A
:10028000A6E3B1E001C01D92A037B207E1F711E08B
:10029000CEE2D1E004C02197FE010E942C0DCD32A8
:1002A000D107C9F70E94E90A0C94370D0C9400009D
:1002B000409191015091920120918F0130919001D4
:1002C00042175307B4F49091E8009570E1F39091D0
:1002D000E80092FD19C08093F10080919101909106
:1002E000920101968F739927892B19F48EEF8093D1
:1002F000E800809191019091920101969093920172
:100300008093910181E0089580E00895CF92DF927B
:10031000EF92FF920F931F93CF93DF931F92CDB76E
:10032000DEB7182F062FE42E862F880F8E5F998355
:100330000E94580183E00E945801F12EC12E99813C
:10034000D92E8C2D8F19801798F4F601E7FE02C084
:10035000849101C080810E945801182F80E00E9482
:1003600058018123FFEFCF1ADF0A8111EACF01C0C4
:1003700081E00F90DF91CF911F910F91FF90EF904F
:10038000DF90CF900895DF92EF92FF920F931F932B
:10039000CF93DF93D82E8A017B01E40EF51EEB018B
:1003A000CE15DF0571F0D7FE03C0FE01849101C0B8
:1003B00088810E94580121968111F2CF8FEF9FEF23
:1003C00001C0C801DF91CF911F910F91FF90EF9075
:1003D000DF900895615030F02091F100FC012083FE
:1003E0000196F8CF289A84E6809397010895CF92DA
:1003F000DF92EF92FF920F931F93CF93DF936C01E5
:100400007A018B01C0E0D0E0CE15DF0589F0D8017C
:100410006D918D01D601ED91FC910190F081E02D5F
:10042000C6010995892B11F47E0102C02196ECCFFB
:10043000C701DF91CF911F910F91FF90EF90DF9057
:10044000CF900895CF93DF931F92CDB7DEB7698326
:10045000DC01ED91FC910280F381E02D41E050E060
:10046000BE016F5F7F4F09950F90DF91CF91089587
:1004700083E08093E9008091F200882319F08AE3F9
:100480008093E8000895FC018485958597FD0BC055
:100490009FB7F89482E08093E9008091F2009FBFBB
:1004A00090E0019608959FB7F89482E08093E90068
:1004B0008091F2009FBF90E008953FB7F89480913B
:1004C0007E0190917F01A0918001B091810126B5BC
:1004D000A89B05C02F3F19F00196A11DB11D3FBF7C
:1004E000BA2FA92F982F8827820F911DA11DB11D0A
:1004F000BC01CD0142E0660F771F881F991F4A9506
:10050000D1F708958F929F92AF92BF92CF92DF92D0
:10051000EF92FF926B017C010E945D024B015C0136
:10052000C114D104E104F104F1F00E945D02DC0188
:10053000CB0188199909AA09BB09883E9340A105F6
:10054000B10570F321E0C21AD108E108F10888EE84
:10055000880E83E0981EA11CB11CC114D104E104D3
:10056000F10419F7DDCFFF90EF90DF90CF90BF90AF
:10057000AF909F908F9008958F929F92AF92BF926D
:10058000CF92DF92EF92FF920F931F93CF93DF935F
:100590005C016B018A0180910B01882309F45EC024
:1005A00080919801882309F459C08091950180FFBA
:1005B00005C08091E00082608093E000E8018AEF4E
:1005C000F82E93E0E92E2FE3822E3AE3932E209724
:1005D00009F43DC08FB7F894E092E9009091E800EB
:1005E00095FF06C09091F200282D291B922F01C083
:1005F00090E08FBF91110AC0FA94FF2079F161E079
:1006000070E080E090E00E948202E1CF292F30E08C
:10061000C217D3070CF49C2F8FB7F894E092E9002F
:100620002091E80025FF11C0292F30E0C21BD30B19
:10063000F601915020F041914093F100FACFC20EA3
:10064000D31E9091E80095FF13C08FBFC0CF5D9A75
:1006500084E6809396011016110644F081E090E044
:10066000F5019383828380E090E005C0C80103C058
:100670009092E800EACFDF91CF911F910F91FF9008
:10068000EF90DF90CF90BF90AF909F908F900895A4
:1006900085ED8093BC008091BC0084FDFCCF10925E
:1006A000E101089540915801262F30E0240F311DBB
:1006B00021323105DCF42091E1012430C9F4FC0140
:1006C00080E090E0861758F4309158012191DC01C8
:1006D000AA5CBE4FA30FB11D2C930196F3CF80915E
:1006E0005801680F6093580180E0089581E00895F3
:1006F00082E008950895E0919A0180919901E817A8
:1007000030F4F0E0E556FE4F808190E008958FEFE1
:100710009FEF089590919A0180919901981750F454
:10072000E92FF0E0E556FE4F208130E09F5F909387
:100730009A0102C02FEF3FEFC901089580919901FE
:1007400090E020919A01821B91090895CF92DF9247
:10075000EF92FF920F931F93CF93DF937C01262F8D
:10076000972F8A018091E201882391F0C62FD72F1D
:100770006E01C40ED51ECC15DD0571F06991D7014F
:10078000ED91FC910190F081E02DC7010995F3CF27
:10079000642F822F0E945203C801DF91CF911F91D5
:1007A0000F91FF90EF90DF90CF900895CF93DF935C
:1007B0001F92CDB7DEB769832091E2012223D1F0E9
:1007C00020910402203240F021E030E0FC0133832C
:1007D000228380E090E015C08091E301E82FF0E0F3
:1007E000EC51FE4F998190838F5F8093E30180935A
:1007F000040205C061E0CE0101960E94520381E02F
:1008000090E00F90DF91CF9108950F931F93CF93B6
:10081000DF931F92CDB7DEB782E0898342E450E0D8
:100820006BE671E080E80E94C3010E94D50ADC01FA
:1008300012960D911C9113970115110569F0D801BD
:10084000ED91FC910280F381E02DBE016F5F7F4F3F
:10085000C801099597FF07C089810F90DF91CF915B
:100860001F910F910895F80100851185E5CFCF9371
:10087000DF931F92CDB7DEB7FC018485958597FD88
:1008800005C02FEF3FEF358724870BC0CE010196BF
:100890000E94AB0A019719F4898190E002C08FEFA2
:1008A0009FEF0F90DF91CF9108950F931F93CF93F8
:1008B000DF931F92CDB7DEB78C01FC01848595854F
:1008C00097FF0EC0CE0101960E94AB0A019719F462
:1008D000298130E002C02FEF3FEFF80135872487F0
:1008E000F801848595850F90DF91CF911F910F912D
:1008F00008950E94320D1F920F920FB60F9211248D
:100900008F939F938091E1009091E100937F90936A
:10091000E10083FF0FC01092E90091E09093EB009B
:100920001092EC0092E39093ED001092980198E001
:100930009093F00082FF20C093E09093E9009091A3
:10094000F200992319F09AE39093E80090919601B0
:10095000992339F0909196019150909396019923A3
:1009600089F190919701992339F0909197019150D5
:1009700090939701992341F184FF10C08091E20088
:100980008E7E81608093E2008091E1008F7E809373
:10099000E100809195018E7E806111C080FF16C0BC
:1009A0008091E2008E7E80618093E2008091E10080
:1009B0008E7E8093E100809195018E7E8160809390
:1009C000950104C05D98CDCF2898D6CF9F918F9187
:1009D0000F900FBE0F901F9018951F920F920FB699
:1009E0000F921124CF92DF92EF92FF920F931F93F9
:1009F0002F933F934F935F936F937F938F939F9327
:100A0000AF93BF93EF93FF93CF93DF93CDB7DEB751
:100A10006C97DEBFCDBF1092E9008091E80083FFA4
:100A2000FAC168E0CE0145960E94EA0182EF809308
:100A3000E8008D8987FF05C09091E80090FFFCCF0A
:100A400003C09EEF9093E800982F907609F0C6C0FF
:100A50009E892F89188D91110CC0803829F48091BE
:100A600094018093F10002C01092F1001092F10005
:100A700047C1422F50E0512B913051F4811140C1B8
:100A80004130510509F03CC1809194018D7F0BC02C
:100A9000933061F4811134C14130510509F030C106
:100AA000809194018260809394012AC1953041F431
:100AB0008091E80080FFFCCF20682093E30020C1F4
:100AC000963009F05FC0EB8CFC8C1092E90010921C
:100AD000920110929101123091F5109290011092B2
:100AE0008F010E94050499E0BE016F5F7F4FDB011B
:100AF000E92F1D92EA95E9F799831A8391E09E8385
:100B000090EA98879AEF998720919101309192010C
:100B1000275F3F4F3C832B838D831092E900109217
:100B2000920110929101F0929001E0928F0149E0C0
:100B300050E080E00E94C3010E940504E1C0F092F1
:100B40009001E0928F010E94D50ADC011296ED908F
:100B5000FC901397E114F10409F4C0C0D701ED91A2
:100B6000FC910480F581E02DBE016B5E7F4FC701D3
:100B70000995009719F00CF0C3C0C6C0F701E084D6
:100B8000F184E8CF973009F4BFC0983021F481E0B8
:100B90008093F100B5C0993009F0B2C0837009F0BC
:100BA000B3C0EDE0F1E081E021E036E390819923EC
:100BB00061F08093E9002093EB0091919093EC0019
:100BC0003093ED008F5F873089F78EE78093EA00DE
:100BD0001092EA008F898093980192C08B8D9C8D32
:100BE0001092E9001092920110929101909390015D
:100BF00080938F01898D811156C08E899D89913A8C
:100C000059F4813209F080C047E050E064E071E0BF
:100C100080E00E94C30174C0913209F075C0833234
:100C200089F4888D90E0982F88272F89822BA0E067
:100C3000B0E08093000190930101A0930201B09372
:100C400003015EC0803269F48091E80082FFFCCF2E
:100C500067E084E091E00E94EA018BEF8093E80076
:100C600006C0823209F04CC08F8980930B018091BD
:100C70009301882319F0EEEFFAE002C0E0E0F8E01B
:100C80008091040190910501A0910601B0910701A6
:100C9000803B9440A105B10509F088C080910B010B
:100CA00080FFA0C083C00E94D50ADC0112960D917E
:100CB0001C9113970115110539F1D801ED91FC91A3
:100CC0000190F081E02DBE016B5E7F4FC801099558
:100CD000811116C0F80100851185ECCF1130C1F0EB
:100CE000133091F48F89882309F455C08230E9F4D8
:100CF00040E86DE08DEB91E00E948601882321F0B1
:100D00008EEF8093E80087C081E28093EB0083C080
:100D10008B8D9C8D089711F410938E0180918E011C
:100D2000811136C06BEC71E038C0813029F440E8A5
:100D30006BE081EB91E0E0CF833031F70E94D50A80
:100D4000DC011296ED90FC9013978E010F5F1F4F00
:100D50006801E114F10479F0D701ED91FC9106806E
:100D6000F781E02DB801C7010995080F111DF701A2
:100D7000E084F184EECFD8011C92F60101900020AE
:100D8000E9F73197BF016C197D0940E0C601B4CF86
:100D90006DED71E002C06DEA71E06115710509F455
:100DA000B3CFFB01449150E080E833CF0FB6F89405
:100DB000A895809160008861809360001092600027
:100DC0000FBEA895EE3F2AE0F20739F08091FE0AA7
:100DD0009091FF0A9183808393CF1092FF0A109223
:100DE000FE0A8ECFEE3F8AE0F80731F080819181D4
:100DF0009093FF0A8093FE0A87E797E791838083A9
:100E00009BE088E10FB6F894A895809360000FBE30
:100E10009093600075CF6C960FB6F894DEBF0FBE4E
:100E2000CDBFDF91CF91FF91EF91BF91AF919F9196
:100E30008F917F916F915F914F913F912F911F9172
:100E40000F91FF90EF90DF90CF900F900FBE0F901B
:100E50001F9018951F920F920FB60F9211242F9387
:100E60003F938F939F93AF93BF9380918201909113
:100E70008301A0918401B091850130917D0123E02F
:100E8000230F2D3720F40196A11DB11D05C026E8C2
:100E9000230F0296A11DB11D20937D018093820135
:100EA00090938301A0938401B093850180917E018A
:100EB00090917F01A0918001B09181010196A11DC7
:100EC000B11D80937E0190937F01A0938001B09328
:100ED0008101BF91AF919F918F913F912F910F9081
:100EE0000FBE0F901F9018951F920F920FB60F9282
:100EF00011242F933F934F935F936F937F938F931F
:100F00009F93AF93BF93EF93FF938091B900887F36
:100F1000803609F49CC068F5883209F45BC090F40F
:100F2000803109F454C038F4882309F4F6C08830BD
:100F300009F44DC0F6C0883109F44CC0803209F480
:100F40005DC0EFC0803409F468C048F4803309F410
:100F500055C0883309F0E5C08093DF01D8C08035E3
:100F600009F44FC0883509F45DC0883409F0D9C050
:100F7000D6C0883909F4C7C0A8F4883709F467C017
:100F800038F4883609F463C0803709F460C0C9C0FA
:100F9000883809F4B8C0803909F45FC0803809F096
:100FA000C0C05BC0803B09F486C038F4803A09F4C5
:100FB00066C0883A09F47FC0B4C0803C09F4A7C079
:100FC000883C09F4A4C0883B09F48AC0AAC0809177
:100FD000BC0110C09091DE018091DD01981770F581
:100FE000E091DE0181E08E0F8093DE01F0E0E354BA
:100FF000FE4F80818093BB0085EC86C08093DF012B
:101000008EC0E091DE0181E08E0F8093DE01809141
:10101000BB00F0E0E354FE4F80839091DE018091AD
:10102000DD016EC0E091DE0181E08E0F8093DE0174
:101030008091BB00F0E0E354FE4F80838091E0019B
:1010400081116DC081E08093BB0184EA61C083E0BF
:101050008093E10110927C01CFCF80917C0180329E
:1010600008F051C0E0917C0181E08E0F80937C01FB
:101070008091BB00F0E0E45AFE4F8083BDCF85EC49
:101080008093BC001092E10180917C01803230F4A9
:10109000E0917C01F0E0E45AFE4F108260917C0107
:1010A00070E0E0915A01F0915B018CE591E00995C7
:1010B00010927C0136C084E08093E10110925901C6
:1010C00010925801E0915601F091570109958091D5
:1010D0005801811105C081E08093580110923601BA
:1010E000E091590181E08E0F80935901F0E0EA5CB4
:1010F000FE4F80818093BB009091590180915801EF
:10110000981708F479CF85E88093BC000AC085EC75
:101110008093BC001092E10104C01092DF010E9494
:101120004803FF91EF91BF91AF919F918F917F9174
:101130006F915F914F913F912F910F900FBE0F9044
:101140001F901895382F2091040290916F02213240
:1011500008F049C08091E1018111FCCF42E0409349
:10116000E1013093E0013FEF3093DF011092DE01A7
:101170002093DD01A4EEB1E04DEB51E0FA013E2FEA
:10118000341B321718F43D913193F9CF1092BC0102
:101190002091BC01990F922B9093BC019091BB01BF
:1011A000913061F41092BB019091BC019093BB000F
:1011B0009091BC0093FDF8CF95EC01C095EE909313
:1011C000BC009091E1019230E1F39091DF019F3FEB
:1011D00079F08091DF01803241F08091DF0180332E
:1011E00031F084E005C081E003C082E001C083E00B
:1011F0001092E301109204021092E201089590917E
:10120000E1019111FCCF91E09093E1019093E00115
:101210002FEF2093DF011092DE01260F2093DD01D6
:101220009093BC019091BC01880F892B8093BC01E5
:101230008091BB01813061F41092BB018091BC01AF
:101240008093BB008091BC0083FDF8CF85EC01C08A
:1012500085EE8093BC008091E1018130E1F38091C3
:10126000DE01861710F46091DE01ADEBB1E02BE9F1
:1012700031E0F9018E2F821B861718F48D9181932E
:10128000F9CF862F0895BC01009791F0FC010190E1
:101290000020E9F73197AF01481B590BE091050297
:1012A000F09106020280F381E02D85E092E009943E
:1012B00080E090E008950F931F93CF93DF938C010C
:1012C000C0E0D0E0F801EC0FFD1F6491662371F0DF
:1012D000E0910502F09106020190F081E02D85E099
:1012E00092E00995892B11F02196ECCFCE01DF9188
:1012F000CF911F910F910895CF93DF930E945B09C7
:10130000EC0183E391E00E9443098C0F9D1FDF9164
:10131000CF9108951F93CF93DF93162FC1E6D2E0AC
:10132000988121E02093E20190936F021092E301F3
:1013300010920402682F85E592E00E94D603612F87
:1013400085E592E00E94D60381E00E94A20889838D
:10135000DF91CF911F9108959091610221E0209338
:10136000E20190936F021092E30110920402682F41
:1013700085E592E00E94D60381E00E94A208809356
:1013800062028BED91E00197F1F761E080916102DB
:101390000E94FF0810929A0180939901811101C067
:1013A000FFCF85E592E00E948A03089590E0FC015A
:1013B000E55CFD4F4491FC01E45EFD4F2491FC018E
:1013C000E350FE4F8491882309F44CC04423E1F19B
:1013D00050E0FA013197EF30F105B0F5EA5AFF4FCE
:1013E0000C942C0D909180009F7707C09091800005
:1013F0009F7D03C090918000977F9093800024C0D0
:1014000094B59F7702C094B59F7D94BD1DC0909107
:1014100090009F7707C0909190009F7D03C09091AE
:101420009000977F909390000FC09091C0009F779D
:1014300003C09091C0009F7D9093C00005C0909123
:10144000C200977F9093C200E82FF0E0EE0FFF1FDD
:10145000E151FE4FA591B4918FB7F894EC912E2BEA
:101460002C938FBF08958F929F92AF92BF920F934C
:101470001F93CF93DF93CDB7DEB7A1970FB6F89444
:10148000DEBF0FBECDBF19A2423008F44AE08E0184
:101490000F5D1F4F842E912CA12CB12CA50194011E
:1014A0000E940A0DE62FB901CA0101501109EA3064
:1014B00014F4E05D01C0E95CD801EC93232B242BEC
:1014C000252B61F7C8010E944309A1960FB6F89435
:1014D000DEBF0FBECDBFDF91CF911F910F91BF90A7
:1014E000AF909F908F900895CF93DF93909161027A
:1014F00021E02093E20190936F021092E301109299
:101500000402682F85E592E00E94D60381E00E94E4
:10151000A208809362028BED91E00197F1F762E0FF
:10152000809161020E94FF0810929A0180939901B4
:10153000811101C0FFCF85E592E00E948A03D82F78
:1015400080E0C82F85E592E00E948A038C2B9D2BBA
:10155000DF91CF910895FC0180919801811103C022
:101560008FEF9FEF08959FB7F89482E08093E90092
:101570002091F20030E01216130614F421E030E05E
:101580002115310559F0289A84E6809397018091BE
:10159000F10080838091F200882319F09FBFC90178
:1015A00008958BE68093E800F9CF8091670281115E
:1015B0000DC082E08093630284E080936402109205
:1015C00066021092650281E08093670283E692E0F2
:1015D0000895789484B5826084BD84B5816084BDAB
:1015E00085B5826085BD85B5816085BD80916E00C1
:1015F000816080936E0010928100809181008260F2
:10160000809381008091810081608093810080912E
:10161000800081608093800080919100826080933F
:101620009100809191008160809391008091900061
:101630008160809390008091C10084608093C1009C
:101640008091C10082608093C1008091C10081605F
:101650008093C1008091C30081608093C30080911A
:10166000C00082608093C0008091C200816080933E
:10167000C20080917A00846080937A0080917A0021
:10168000826080937A0080917A00816080937A00F2
:1016900080917A00806880937A001092980110926D
:1016A0009401109295018091D70081608093D700BA
:1016B00080EA8093D80089B5806189BD89B5826050
:1016C00089BD09B400FEFDCF61E070E080E090E0EC
:1016D0000E9482028091D8008F7C80618093D80024
:1016E0008091E000807F8093E0008091E1008E7E19
:1016F0008093E1008DE08093E200559A209A5D98F6
:101700002898EEEFFFE7859194918B3F9C4D19F45B
:1017100081E0809393018FEF9FEF9093120280936B
:10172000110260ED77E080E090E00E9482028EE09E
:1017300091E00E947C0903E111E0D8E4C5E4009344
:10174000610210929A01109299011092E301109295
:1017500004021092E1011093E0011092BB0182E0BB
:101760000E94D60983E00E94D6098091B9008E7F3D
:101770008093B9008091B9008D7F8093B900D09398
:10178000B800C093BC0081E80E94AC09813259F0D6
:1017900082EE90E00E947C0968E873E180E090E0CE
:1017A0000E948202CCCF60E082E80E948A0962E057
:1017B00083E80E948A0984E80E94AC098878682F2F
:1017C000656184E80E948A098FE80E94AC09682F4D
:1017D000677E8FE80E948A0960E089E80E948A0992
:1017E00080E80E94AC09682F686180E80E948A093D
:1017F00064E183E80E948A0984E80E94AC09887841
:10180000682F676184E80E948A0965E082E80E9487
:101810008A098AEC90E00E947C098AE0A82EB12C0B
:1018200098EE492E93E0592E612C712C20E0822EE7
:1018300020E0922E80E80E94AC09C82F85E80E9423
:10184000740A6C016C2F606180E80E948A0980E84C
:101850000E94AC09C82F87E80E94740A7C016C2F93
:10186000686080E80E948A0980918C0190918D01C6
:10187000892BB1F480918A0190918B01892B81F49D
:10188000C601B5010E94F60C70938D0160938C0126
:10189000C701B5010E94F60C70938B0160938A0119
:1018A000C0918601D0918701CE19DF09009188018E
:1018B000109189010C191D0917FF03C0119501959D
:1018C000110980918C0190918D018017910778F01A
:1018D000CE01D7FF04C0882799278C1B9D0B209130
:1018E0008A0130918B012817390708F055C083E62B
:1018F00091E00E945B092FB7F8946091820170918A
:10190000830180918401909185012FBFA3019201F1
:101910000E940A0DCA01B9014AE00E94330A80E51B
:1019200091E00E945B0980918C0190918D0180175C
:10193000910720F48EE491E00E945B09C601A0E0CB
:10194000B0E04AE0BC01CD010E94330A8FE391E090
:101950000E945B09D7FF03C0D195C195D109809141
:101960008A0190918B018C179D0720F48DE391E003
:101970000E945B09B70180E090E04AE00E94330AD0
:1019800083E391E00E944309D0928901C0928801CB
:10199000F0928701E09286018114910409F44ACF04
:1019A0000E94000047CFE5E0F2E01382128288EE49
:1019B00093E0A0E0B0E084839583A683B78327E11A
:1019C00031E0318320832FEF3FEF35872487E5E532
:1019D000F2E01382128284839583A683B78387E221
:1019E00091E091838083109261020895AA1BBB1B32
:1019F00051E107C0AA1FBB1FA617B70710F0A61B0F
:101A0000B70B881F991F5A95A9F780959095BC012F
:101A1000CD010895A1E21A2EAA1BBB1BFD010DC02A
:101A2000AA1FBB1FEE1FFF1FA217B307E407F5078E
:101A300020F0A21BB30BE40BF50B661F771F881F6A
:101A4000991F1A9469F760957095809590959B0100
:101A5000AC01BD01CF010895EE0FFF1F0590F49179
:101A6000E02D099481E090E0F8940C94370DF894FF
:021A7000FFCFA6
:101A7200FFFFFFFF00E100000000000000C18081C5
:101A8200000000000000002202BC0243023704559D
:101A920004380200000000D603A6039E038A037BDB
:061AA200037A030D0A00A7
:00000001FF
